{
  "contractName": "ExonswapV2Router",
  "abi": [
    {
      "inputs": [
        {
          "internalType": "address",
          "name": "_factory",
          "type": "address"
        },
        {
          "internalType": "address",
          "name": "_WTRX",
          "type": "address"
        }
      ],
      "stateMutability": "nonpayable",
      "type": "constructor"
    },
    {
      "stateMutability": "payable",
      "type": "fallback"
    },
    {
      "inputs": [],
      "name": "WTRX",
      "outputs": [
        {
          "internalType": "address",
          "name": "",
          "type": "address"
        }
      ],
      "stateMutability": "view",
      "type": "function"
    },
    {
      "inputs": [
        {
          "internalType": "address",
          "name": "tokenA",
          "type": "address"
        },
        {
          "internalType": "address",
          "name": "tokenB",
          "type": "address"
        },
        {
          "internalType": "uint256",
          "name": "amountADesired",
          "type": "uint256"
        },
        {
          "internalType": "uint256",
          "name": "amountBDesired",
          "type": "uint256"
        },
        {
          "internalType": "uint256",
          "name": "amountAMin",
          "type": "uint256"
        },
        {
          "internalType": "uint256",
          "name": "amountBMin",
          "type": "uint256"
        },
        {
          "internalType": "address",
          "name": "to",
          "type": "address"
        },
        {
          "internalType": "uint256",
          "name": "deadline",
          "type": "uint256"
        },
        {
          "internalType": "uint256",
          "name": "_tokenId",
          "type": "uint256"
        }
      ],
      "name": "addLiquidity",
      "outputs": [
        {
          "internalType": "uint256",
          "name": "amountA",
          "type": "uint256"
        },
        {
          "internalType": "uint256",
          "name": "amountB",
          "type": "uint256"
        },
        {
          "internalType": "uint256",
          "name": "liquidity",
          "type": "uint256"
        }
      ],
      "stateMutability": "nonpayable",
      "type": "function"
    },
    {
      "inputs": [
        {
          "internalType": "address",
          "name": "token",
          "type": "address"
        },
        {
          "internalType": "uint256",
          "name": "amountTokenDesired",
          "type": "uint256"
        },
        {
          "internalType": "uint256",
          "name": "amountTokenMin",
          "type": "uint256"
        },
        {
          "internalType": "uint256",
          "name": "amountTRXMin",
          "type": "uint256"
        },
        {
          "internalType": "address",
          "name": "to",
          "type": "address"
        },
        {
          "internalType": "uint256",
          "name": "deadline",
          "type": "uint256"
        },
        {
          "internalType": "uint256",
          "name": "_tokenId",
          "type": "uint256"
        }
      ],
      "name": "addLiquidityTRX",
      "outputs": [
        {
          "internalType": "uint256",
          "name": "amountToken",
          "type": "uint256"
        },
        {
          "internalType": "uint256",
          "name": "amountTRX",
          "type": "uint256"
        },
        {
          "internalType": "uint256",
          "name": "liquidity",
          "type": "uint256"
        }
      ],
      "stateMutability": "payable",
      "type": "function"
    },
    {
      "inputs": [],
      "name": "factory",
      "outputs": [
        {
          "internalType": "address",
          "name": "",
          "type": "address"
        }
      ],
      "stateMutability": "view",
      "type": "function"
    },
    {
      "inputs": [
        {
          "internalType": "uint256",
          "name": "amountOut",
          "type": "uint256"
        },
        {
          "internalType": "address[]",
          "name": "path",
          "type": "address[]"
        }
      ],
      "name": "getAmountsIn",
      "outputs": [
        {
          "internalType": "uint256[]",
          "name": "amounts",
          "type": "uint256[]"
        }
      ],
      "stateMutability": "view",
      "type": "function"
    },
    {
      "inputs": [
        {
          "internalType": "uint256",
          "name": "amountIn",
          "type": "uint256"
        },
        {
          "internalType": "address[]",
          "name": "path",
          "type": "address[]"
        }
      ],
      "name": "getAmountsOut",
      "outputs": [
        {
          "internalType": "uint256[]",
          "name": "amounts",
          "type": "uint256[]"
        }
      ],
      "stateMutability": "view",
      "type": "function"
    },
    {
      "inputs": [
        {
          "internalType": "address",
          "name": "_token0",
          "type": "address"
        },
        {
          "internalType": "address",
          "name": "_token1",
          "type": "address"
        }
      ],
      "name": "getPairReserves",
      "outputs": [
        {
          "internalType": "uint256",
          "name": "",
          "type": "uint256"
        },
        {
          "internalType": "uint256",
          "name": "",
          "type": "uint256"
        }
      ],
      "stateMutability": "view",
      "type": "function"
    },
    {
      "inputs": [],
      "name": "owner",
      "outputs": [
        {
          "internalType": "address",
          "name": "",
          "type": "address"
        }
      ],
      "stateMutability": "view",
      "type": "function"
    },
    {
      "inputs": [
        {
          "internalType": "address",
          "name": "tokenA",
          "type": "address"
        },
        {
          "internalType": "address",
          "name": "tokenB",
          "type": "address"
        },
        {
          "internalType": "uint256",
          "name": "liquidity",
          "type": "uint256"
        },
        {
          "internalType": "uint256",
          "name": "amountAMin",
          "type": "uint256"
        },
        {
          "internalType": "uint256",
          "name": "amountBMin",
          "type": "uint256"
        },
        {
          "internalType": "address",
          "name": "to",
          "type": "address"
        },
        {
          "internalType": "uint256",
          "name": "deadline",
          "type": "uint256"
        },
        {
          "internalType": "uint256",
          "name": "_tokenId",
          "type": "uint256"
        }
      ],
      "name": "removeLiquidity",
      "outputs": [
        {
          "internalType": "uint256",
          "name": "amountA",
          "type": "uint256"
        },
        {
          "internalType": "uint256",
          "name": "amountB",
          "type": "uint256"
        }
      ],
      "stateMutability": "nonpayable",
      "type": "function"
    },
    {
      "inputs": [
        {
          "internalType": "address",
          "name": "token",
          "type": "address"
        },
        {
          "internalType": "uint256",
          "name": "liquidity",
          "type": "uint256"
        },
        {
          "internalType": "uint256",
          "name": "amountTokenMin",
          "type": "uint256"
        },
        {
          "internalType": "uint256",
          "name": "amountTRXMin",
          "type": "uint256"
        },
        {
          "internalType": "address",
          "name": "to",
          "type": "address"
        },
        {
          "internalType": "uint256",
          "name": "deadline",
          "type": "uint256"
        },
        {
          "internalType": "uint256",
          "name": "_tokenId",
          "type": "uint256"
        }
      ],
      "name": "removeLiquidityTRX",
      "outputs": [
        {
          "internalType": "uint256",
          "name": "amountToken",
          "type": "uint256"
        },
        {
          "internalType": "uint256",
          "name": "amountTRX",
          "type": "uint256"
        }
      ],
      "stateMutability": "nonpayable",
      "type": "function"
    },
    {
      "inputs": [
        {
          "internalType": "address",
          "name": "token",
          "type": "address"
        },
        {
          "internalType": "uint256",
          "name": "liquidity",
          "type": "uint256"
        },
        {
          "internalType": "uint256",
          "name": "amountTokenMin",
          "type": "uint256"
        },
        {
          "internalType": "uint256",
          "name": "amountTRXMin",
          "type": "uint256"
        },
        {
          "internalType": "address",
          "name": "to",
          "type": "address"
        },
        {
          "internalType": "uint256",
          "name": "deadline",
          "type": "uint256"
        },
        {
          "internalType": "uint256",
          "name": "_token_id",
          "type": "uint256"
        }
      ],
      "name": "removeLiquidityTRXSupportingFeeOnTransferTokens",
      "outputs": [
        {
          "internalType": "uint256",
          "name": "amountTRX",
          "type": "uint256"
        }
      ],
      "stateMutability": "nonpayable",
      "type": "function"
    },
    {
      "inputs": [
        {
          "internalType": "address",
          "name": "token",
          "type": "address"
        },
        {
          "internalType": "uint256",
          "name": "liquidity",
          "type": "uint256"
        },
        {
          "internalType": "uint256",
          "name": "amountTokenMin",
          "type": "uint256"
        },
        {
          "internalType": "uint256",
          "name": "amountTRXMin",
          "type": "uint256"
        },
        {
          "internalType": "address",
          "name": "to",
          "type": "address"
        },
        {
          "internalType": "uint256",
          "name": "deadline",
          "type": "uint256"
        },
        {
          "internalType": "uint8",
          "name": "v",
          "type": "uint8"
        },
        {
          "internalType": "bytes32",
          "name": "r",
          "type": "bytes32"
        },
        {
          "internalType": "bytes32",
          "name": "s",
          "type": "bytes32"
        },
        {
          "internalType": "uint256",
          "name": "_tokenId",
          "type": "uint256"
        }
      ],
      "name": "removeLiquidityTRXWithPermit",
      "outputs": [
        {
          "internalType": "uint256",
          "name": "amountToken",
          "type": "uint256"
        },
        {
          "internalType": "uint256",
          "name": "amountTRX",
          "type": "uint256"
        }
      ],
      "stateMutability": "nonpayable",
      "type": "function"
    },
    {
      "inputs": [
        {
          "internalType": "address",
          "name": "token",
          "type": "address"
        },
        {
          "internalType": "uint256",
          "name": "liquidity",
          "type": "uint256"
        },
        {
          "internalType": "uint256",
          "name": "amountTokenMin",
          "type": "uint256"
        },
        {
          "internalType": "uint256",
          "name": "amountTRXMin",
          "type": "uint256"
        },
        {
          "internalType": "address",
          "name": "to",
          "type": "address"
        },
        {
          "internalType": "uint256",
          "name": "deadline",
          "type": "uint256"
        },
        {
          "internalType": "uint8",
          "name": "v",
          "type": "uint8"
        },
        {
          "internalType": "bytes32",
          "name": "r",
          "type": "bytes32"
        },
        {
          "internalType": "bytes32",
          "name": "s",
          "type": "bytes32"
        },
        {
          "internalType": "uint256",
          "name": "_token_id",
          "type": "uint256"
        }
      ],
      "name": "removeLiquidityTRXWithPermitSupportingFeeOnTransferTokens",
      "outputs": [
        {
          "internalType": "uint256",
          "name": "amountTRX",
          "type": "uint256"
        }
      ],
      "stateMutability": "nonpayable",
      "type": "function"
    },
    {
      "inputs": [
        {
          "internalType": "address",
          "name": "tokenA",
          "type": "address"
        },
        {
          "internalType": "address",
          "name": "tokenB",
          "type": "address"
        },
        {
          "internalType": "uint256",
          "name": "liquidity",
          "type": "uint256"
        },
        {
          "internalType": "uint256",
          "name": "amountAMin",
          "type": "uint256"
        },
        {
          "internalType": "uint256",
          "name": "amountBMin",
          "type": "uint256"
        },
        {
          "internalType": "address",
          "name": "to",
          "type": "address"
        },
        {
          "internalType": "uint256",
          "name": "deadline",
          "type": "uint256"
        },
        {
          "internalType": "uint8",
          "name": "v",
          "type": "uint8"
        },
        {
          "internalType": "bytes32",
          "name": "r",
          "type": "bytes32"
        },
        {
          "internalType": "bytes32",
          "name": "s",
          "type": "bytes32"
        },
        {
          "internalType": "uint256",
          "name": "_tokenId",
          "type": "uint256"
        }
      ],
      "name": "removeLiquidityWithPermit",
      "outputs": [
        {
          "internalType": "uint256",
          "name": "amountA",
          "type": "uint256"
        },
        {
          "internalType": "uint256",
          "name": "amountB",
          "type": "uint256"
        }
      ],
      "stateMutability": "nonpayable",
      "type": "function"
    },
    {
      "inputs": [
        {
          "internalType": "uint256",
          "name": "amountOutMin",
          "type": "uint256"
        },
        {
          "internalType": "address[]",
          "name": "path",
          "type": "address[]"
        },
        {
          "internalType": "address",
          "name": "to",
          "type": "address"
        },
        {
          "internalType": "uint256",
          "name": "deadline",
          "type": "uint256"
        },
        {
          "internalType": "uint256",
          "name": "_tokenId",
          "type": "uint256"
        }
      ],
      "name": "swapExactTRXForTokens",
      "outputs": [
        {
          "internalType": "uint256[]",
          "name": "amounts",
          "type": "uint256[]"
        }
      ],
      "stateMutability": "payable",
      "type": "function"
    },
    {
      "inputs": [
        {
          "internalType": "uint256",
          "name": "amountIn",
          "type": "uint256"
        },
        {
          "internalType": "uint256",
          "name": "amountOutMin",
          "type": "uint256"
        },
        {
          "internalType": "address[]",
          "name": "path",
          "type": "address[]"
        },
        {
          "internalType": "address",
          "name": "to",
          "type": "address"
        },
        {
          "internalType": "uint256",
          "name": "deadline",
          "type": "uint256"
        },
        {
          "internalType": "uint256",
          "name": "_tokenId",
          "type": "uint256"
        }
      ],
      "name": "swapExactTokensForTRX",
      "outputs": [
        {
          "internalType": "uint256[]",
          "name": "amounts",
          "type": "uint256[]"
        }
      ],
      "stateMutability": "nonpayable",
      "type": "function"
    },
    {
      "inputs": [
        {
          "internalType": "uint256",
          "name": "amountIn",
          "type": "uint256"
        },
        {
          "internalType": "uint256",
          "name": "amountOutMin",
          "type": "uint256"
        },
        {
          "internalType": "address[]",
          "name": "path",
          "type": "address[]"
        },
        {
          "internalType": "address",
          "name": "to",
          "type": "address"
        },
        {
          "internalType": "uint256",
          "name": "deadline",
          "type": "uint256"
        },
        {
          "internalType": "uint256",
          "name": "_tokenId",
          "type": "uint256"
        }
      ],
      "name": "swapExactTokensForTokens",
      "outputs": [
        {
          "internalType": "uint256[]",
          "name": "amounts",
          "type": "uint256[]"
        }
      ],
      "stateMutability": "nonpayable",
      "type": "function"
    },
    {
      "inputs": [
        {
          "internalType": "uint256",
          "name": "amountOut",
          "type": "uint256"
        },
        {
          "internalType": "address[]",
          "name": "path",
          "type": "address[]"
        },
        {
          "internalType": "address",
          "name": "to",
          "type": "address"
        },
        {
          "internalType": "uint256",
          "name": "deadline",
          "type": "uint256"
        },
        {
          "internalType": "uint256",
          "name": "_tokenId",
          "type": "uint256"
        }
      ],
      "name": "swapTRXForExactTokens",
      "outputs": [
        {
          "internalType": "uint256[]",
          "name": "amounts",
          "type": "uint256[]"
        }
      ],
      "stateMutability": "payable",
      "type": "function"
    },
    {
      "inputs": [
        {
          "internalType": "uint256",
          "name": "amountOut",
          "type": "uint256"
        },
        {
          "internalType": "uint256",
          "name": "amountInMax",
          "type": "uint256"
        },
        {
          "internalType": "address[]",
          "name": "path",
          "type": "address[]"
        },
        {
          "internalType": "address",
          "name": "to",
          "type": "address"
        },
        {
          "internalType": "uint256",
          "name": "deadline",
          "type": "uint256"
        },
        {
          "internalType": "uint256",
          "name": "_tokenId",
          "type": "uint256"
        }
      ],
      "name": "swapTokensForExactTRX",
      "outputs": [
        {
          "internalType": "uint256[]",
          "name": "amounts",
          "type": "uint256[]"
        }
      ],
      "stateMutability": "nonpayable",
      "type": "function"
    },
    {
      "inputs": [
        {
          "internalType": "uint256",
          "name": "amountOut",
          "type": "uint256"
        },
        {
          "internalType": "uint256",
          "name": "amountInMax",
          "type": "uint256"
        },
        {
          "internalType": "address[]",
          "name": "path",
          "type": "address[]"
        },
        {
          "internalType": "address",
          "name": "to",
          "type": "address"
        },
        {
          "internalType": "uint256",
          "name": "deadline",
          "type": "uint256"
        },
        {
          "internalType": "uint256",
          "name": "_tokenId",
          "type": "uint256"
        }
      ],
      "name": "swapTokensForExactTokens",
      "outputs": [
        {
          "internalType": "uint256[]",
          "name": "amounts",
          "type": "uint256[]"
        }
      ],
      "stateMutability": "nonpayable",
      "type": "function"
    },
    {
      "stateMutability": "payable",
      "type": "receive"
    }
  ],
  "bytecode": "0x60c06040523480156200001157600080fd5b50d380156200001f57600080fd5b50d280156200002d57600080fd5b506040516200626f3803806200626f83398181016040528101906200005391906200012d565b8173ffffffffffffffffffffffffffffffffffffffff1660808173ffffffffffffffffffffffffffffffffffffffff1660601b815250508073ffffffffffffffffffffffffffffffffffffffff1660a08173ffffffffffffffffffffffffffffffffffffffff1660601b81525050336000806101000a81548173ffffffffffffffffffffffffffffffffffffffff021916908373ffffffffffffffffffffffffffffffffffffffff1602179055505050620001dd565b6000815190506200011a81620001c3565b62000125816200016e565b905092915050565b600080604083850312156200014157600080fd5b6000620001518582860162000109565b9250506020620001648582860162000109565b9150509250929050565b60006200017b8262000182565b9050919050565b600073ffffffffffffffffffffffffffffffffffffffff82169050919050565b600074ffffffffffffffffffffffffffffffffffffffffff82169050919050565b620001ce81620001a2565b8114620001da57600080fd5b50565b60805160601c60a05160601c615f246200034b600039600081816101350152818161018f015281816108a70152818161099601528181610ae201528181610b2101528181610f69015281816112ff01528181611709015281816117ce015281816118b501528181611a8f01528181611b5101528181611dfa01528181611fc80152818161208a0152818161264f01528181612798015281816127f101528181612825015281816128a601528181612a880152612e120152600081816108850152818161097401528181610a6701528181610bc801528181610c8901528181610e0301528181611056015281816111a7015281816114860152818161199401528181611b9001528181611d9001528181611ed9015281816120c90152818161236e015281816123e7015281816125380152818161267b015281816127cf01528181612b7501528181612cba015281816136f8015281816137bf01528181613e950152613f0f0152615f246000f3fe60806040526004361061012e5760003560e01c8063a3459139116100ab578063d06ca61f1161006f578063d06ca61f14610693578063dfbe4a31146106ea578063e07094f314610741578063f692f71f14610786578063f9767a6e146107de578063fef20cea146108105761018d565b8063a34591391461053f578063ad816b0314610597578063b8712b12146105ee578063c45a01551461061e578063c70d80c7146106635761018d565b80633ec8914c116100f25780633ec8914c1461039c57806357528cca146103f357806385f8c2591461044c5780638da5cb5b146104a35780639234026b146104e85761018d565b8063054d50d4146101e75780631078804a1461023e57806317804b18146102955780631f00ca74146102ed57806323ad9306146103445761018d565b3661018d577f000000000000000000000000000000000000000000000000000000000000000073ffffffffffffffffffffffffffffffffffffffff163373ffffffffffffffffffffffffffffffffffffffff161461018b57600080fd5b005b7f000000000000000000000000000000000000000000000000000000000000000073ffffffffffffffffffffffffffffffffffffffff163373ffffffffffffffffffffffffffffffffffffffff16146101e557600080fd5b005b3480156101f357600080fd5b50d3801561020057600080fd5b50d2801561020d57600080fd5b5061022860048036038101906102239190614cbd565b610867565b6040516102359190615961565b60405180910390f35b34801561024a57600080fd5b50d3801561025757600080fd5b50d2801561026457600080fd5b5061027f600480360381019061027a9190614978565b61087d565b60405161028c9190615961565b60405180910390f35b3480156102a157600080fd5b50d380156102ae57600080fd5b50d280156102bb57600080fd5b506102d660048036038101906102d19190614978565b61096a565b6040516102e492919061597c565b60405180910390f35b3480156102f957600080fd5b50d3801561030657600080fd5b50d2801561031357600080fd5b5061032e60048036038101906103299190614b86565b610a60565b60405161033b91906156df565b60405180910390f35b34801561035057600080fd5b50d3801561035d57600080fd5b50d2801561036a57600080fd5b50610385600480360381019061038091906148da565b610a95565b60405161039392919061597c565b60405180910390f35b3480156103a857600080fd5b50d380156103b557600080fd5b50d280156103c257600080fd5b506103dd60048036038101906103d89190614c16565b610bc1565b6040516103ea91906156df565b60405180910390f35b3480156103ff57600080fd5b50d3801561040c57600080fd5b50d2801561041957600080fd5b50610434600480360381019061042f9190614814565b610d9d565b604051610443939291906159ff565b60405180910390f35b34801561045857600080fd5b50d3801561046557600080fd5b50d2801561047257600080fd5b5061048d60048036038101906104889190614cbd565b610ee7565b60405161049a9190615961565b60405180910390f35b3480156104af57600080fd5b50d380156104bc57600080fd5b50d280156104c957600080fd5b506104d2610efd565b6040516104df91906155cc565b60405180910390f35b3480156104f457600080fd5b50d3801561050157600080fd5b50d2801561050e57600080fd5b5061052960048036038101906105249190614c16565b610f21565b60405161053691906156df565b60405180910390f35b34801561054b57600080fd5b50d3801561055857600080fd5b50d2801561056557600080fd5b50610580600480360381019061057b9190614672565b611438565b60405161058e92919061597c565b60405180910390f35b3480156105a357600080fd5b50d380156105b057600080fd5b50d280156105bd57600080fd5b506105d860048036038101906105d391906148da565b6116bd565b6040516105e59190615961565b60405180910390f35b61060860048036038101906106039190614af4565b61186d565b60405161061591906156df565b60405180910390f35b34801561062a57600080fd5b50d3801561063757600080fd5b50d2801561064457600080fd5b5061064d611d8e565b60405161065a91906155cc565b60405180910390f35b61067d60048036038101906106789190614af4565b611db2565b60405161068a91906156df565b60405180910390f35b34801561069f57600080fd5b50d380156106ac57600080fd5b50d280156106b957600080fd5b506106d460048036038101906106cf9190614b86565b612367565b6040516106e191906156df565b60405180910390f35b3480156106f657600080fd5b50d3801561070357600080fd5b50d2801561071057600080fd5b5061072b60048036038101906107269190614c16565b61239c565b60405161073891906156df565b60405180910390f35b34801561074d57600080fd5b50d3801561075a57600080fd5b50d2801561076757600080fd5b5061077061264d565b60405161077d91906155cc565b60405180910390f35b34801561079257600080fd5b50d3801561079f57600080fd5b50d280156107ac57600080fd5b506107c760048036038101906107c29190614724565b612671565b6040516107d592919061597c565b60405180910390f35b6107f860048036038101906107f391906148da565b612749565b604051610807939291906159ff565b60405180910390f35b34801561081c57600080fd5b50d3801561082957600080fd5b50d2801561083657600080fd5b50610851600480360381019061084c9190614c16565b612a40565b60405161085e91906156df565b60405180910390f35b6000610874848484612f4b565b90509392505050565b6000806108cb7f00000000000000000000000000000000000000000000000000000000000000008d7f0000000000000000000000000000000000000000000000000000000000000000613051565b905060008b90508173ffffffffffffffffffffffffffffffffffffffff1663d505accf3330848c8c8c8c6040518863ffffffff1660e01b81526004016109179796959493929190615647565b600060405180830381600087803b15801561093157600080fd5b505af1158015610945573d6000803e3d6000fd5b505050506109588d8d8d8d8d8d8a6116bd565b925050509a9950505050505050505050565b60008060006109ba7f00000000000000000000000000000000000000000000000000000000000000008e7f0000000000000000000000000000000000000000000000000000000000000000613051565b905060008c90508173ffffffffffffffffffffffffffffffffffffffff1663d505accf3330848d8d8d8d6040518863ffffffff1660e01b8152600401610a069796959493929190615647565b600060405180830381600087803b158015610a2057600080fd5b505af1158015610a34573d6000803e3d6000fd5b50505050610a478e8e8e8e8e8e8b610a95565b809450819550505050509a509a98505050505050505050565b6060610a8d7f000000000000000000000000000000000000000000000000000000000000000084846130c7565b905092915050565b6000808342811015610adc576040517f08c379a0000000000000000000000000000000000000000000000000000000008152600401610ad390615841565b60405180910390fd5b610b0c8a7f00000000000000000000000000000000000000000000000000000000000000008b8b8b308b8b611438565b8093508194505050610b1f8a8785613346565b7f000000000000000000000000000000000000000000000000000000000000000073ffffffffffffffffffffffffffffffffffffffff16632e1a7d4d836040518263ffffffff1660e01b8152600401610b789190615961565b600060405180830381600087803b158015610b9257600080fd5b505af1158015610ba6573d6000803e3d6000fd5b50505050610bb4868361347c565b5097509795505050505050565b6060610c2f7f000000000000000000000000000000000000000000000000000000000000000089888880806020026020016040519081016040528093929190818152602001838360200280828437600081840152601f19601f820116905080830192505050505050506130c7565b9050610d9286866000818110610c6e577f4e487b7100000000000000000000000000000000000000000000000000000000600052603260045260246000fd5b9050602002016020810190610c839190614620565b33610d4b7f00000000000000000000000000000000000000000000000000000000000000008a8a6000818110610ce2577f4e487b7100000000000000000000000000000000000000000000000000000000600052603260045260246000fd5b9050602002016020810190610cf79190614620565b8b8b6001818110610d31577f4e487b7100000000000000000000000000000000000000000000000000000000600052603260045260246000fd5b9050602002016020810190610d469190614620565b613051565b84600081518110610d85577f4e487b7100000000000000000000000000000000000000000000000000000000600052603260045260246000fd5b60200260200101516135a2565b979650505050505050565b60008060008442811015610de6576040517f08c379a0000000000000000000000000000000000000000000000000000000008152600401610ddd90615841565b60405180910390fd5b610df48d8d8d8d8d8d6136db565b80945081955050506000610e297f00000000000000000000000000000000000000000000000000000000000000008f8f613051565b9050610e378e3383886135a2565b610e438d3383876135a2565b8073ffffffffffffffffffffffffffffffffffffffff166340c10f1989886040518363ffffffff1660e01b8152600401610e7e9291906156b6565b602060405180830381600087803b158015610e9857600080fd5b505af1158015610eac573d6000803e3d6000fd5b505050506040513d601f19601f82011682018060405250810190610ed09190614acb565b925060009250505099509950999650505050505050565b6000610ef484848461399f565b90509392505050565b60008054906101000a900473ffffffffffffffffffffffffffffffffffffffff1681565b60608242811015610f67576040517f08c379a0000000000000000000000000000000000000000000000000000000008152600401610f5e90615841565b60405180910390fd5b7f000000000000000000000000000000000000000000000000000000000000000073ffffffffffffffffffffffffffffffffffffffff16878760018a8a9050610fb09190615bf0565b818110610fe6577f4e487b7100000000000000000000000000000000000000000000000000000000600052603260045260246000fd5b9050602002016020810190610ffb9190614620565b73ffffffffffffffffffffffffffffffffffffffff1614611051576040517f08c379a000000000000000000000000000000000000000000000000000000000815260040161104890615781565b60405180910390fd5b6110bd7f00000000000000000000000000000000000000000000000000000000000000008a898980806020026020016040519081016040528093929190818152602001838360200280828437600081840152601f19601f82011690508083019250505050505050613ab2565b91508782600184516110cf9190615bf0565b81518110611106577f4e487b7100000000000000000000000000000000000000000000000000000000600052603260045260246000fd5b6020026020010151101561114f576040517f08c379a000000000000000000000000000000000000000000000000000000000815260040161114690615901565b60405180910390fd5b6112b08787600081811061118c577f4e487b7100000000000000000000000000000000000000000000000000000000600052603260045260246000fd5b90506020020160208101906111a19190614620565b336112697f00000000000000000000000000000000000000000000000000000000000000008b8b6000818110611200577f4e487b7100000000000000000000000000000000000000000000000000000000600052603260045260246000fd5b90506020020160208101906112159190614620565b8c8c600181811061124f577f4e487b7100000000000000000000000000000000000000000000000000000000600052603260045260246000fd5b90506020020160208101906112649190614620565b613051565b856000815181106112a3577f4e487b7100000000000000000000000000000000000000000000000000000000600052603260045260246000fd5b60200260200101516135a2565b6112fd82888880806020026020016040519081016040528093929190818152602001838360200280828437600081840152601f19601f820116905080830192505050505050503086613d21565b7f000000000000000000000000000000000000000000000000000000000000000073ffffffffffffffffffffffffffffffffffffffff16632e1a7d4d83600185516113489190615bf0565b8151811061137f577f4e487b7100000000000000000000000000000000000000000000000000000000600052603260045260246000fd5b60200260200101516040518263ffffffff1660e01b81526004016113a39190615961565b600060405180830381600087803b1580156113bd57600080fd5b505af11580156113d1573d6000803e3d6000fd5b5050505061142c8583600185516113e89190615bf0565b8151811061141f577f4e487b7100000000000000000000000000000000000000000000000000000000600052603260045260246000fd5b602002602001015161347c565b50979650505050505050565b600080834281101561147f576040517f08c379a000000000000000000000000000000000000000000000000000000000815260040161147690615841565b60405180910390fd5b60006114ac7f00000000000000000000000000000000000000000000000000000000000000008d8d613051565b90508073ffffffffffffffffffffffffffffffffffffffff166323b872dd33838d6040518463ffffffff1660e01b81526004016114eb93929190615610565b602060405180830381600087803b15801561150557600080fd5b505af1158015611519573d6000803e3d6000fd5b505050506040513d601f19601f8201168201806040525081019061153d9190614a53565b506000808273ffffffffffffffffffffffffffffffffffffffff16639dc29fac8a896040518363ffffffff1660e01b815260040161157c9291906156b6565b6040805180830381600087803b15801561159557600080fd5b505af11580156115a9573d6000803e3d6000fd5b505050506040513d601f19601f820116820180604052508101906115cd9190614bda565b9150915060006115dd8f8f61403b565b5090508073ffffffffffffffffffffffffffffffffffffffff168f73ffffffffffffffffffffffffffffffffffffffff161461161a57818361161d565b82825b80975081985050508b871015611668576040517f08c379a000000000000000000000000000000000000000000000000000000000815260040161165f90615941565b60405180910390fd5b8a8610156116ab576040517f08c379a00000000000000000000000000000000000000000000000000000000081526004016116a290615741565b60405180910390fd5b50505050509850989650505050505050565b60008242811015611703576040517f08c379a00000000000000000000000000000000000000000000000000000000081526004016116fa90615841565b60405180910390fd5b611733897f00000000000000000000000000000000000000000000000000000000000000008a8a8a308a8a611438565b9050809250506117cc89868b73ffffffffffffffffffffffffffffffffffffffff166370a08231306040518263ffffffff1660e01b815260040161177791906155cc565b60206040518083038186803b15801561178f57600080fd5b505afa1580156117a3573d6000803e3d6000fd5b505050506040513d601f19601f820116820180604052508101906117c79190614acb565b613346565b7f000000000000000000000000000000000000000000000000000000000000000073ffffffffffffffffffffffffffffffffffffffff16632e1a7d4d836040518263ffffffff1660e01b81526004016118259190615961565b600060405180830381600087803b15801561183f57600080fd5b505af1158015611853573d6000803e3d6000fd5b50505050611861858361347c565b50979650505050505050565b606082428110156118b3576040517f08c379a00000000000000000000000000000000000000000000000000000000081526004016118aa90615841565b60405180910390fd5b7f000000000000000000000000000000000000000000000000000000000000000073ffffffffffffffffffffffffffffffffffffffff1687876000818110611924577f4e487b7100000000000000000000000000000000000000000000000000000000600052603260045260246000fd5b90506020020160208101906119399190614620565b73ffffffffffffffffffffffffffffffffffffffff161461198f576040517f08c379a000000000000000000000000000000000000000000000000000000000815260040161198690615781565b60405180910390fd5b6119fb7f000000000000000000000000000000000000000000000000000000000000000034898980806020026020016040519081016040528093929190818152602001838360200280828437600081840152601f19601f82011690508083019250505050505050613ab2565b9150878260018451611a0d9190615bf0565b81518110611a44577f4e487b7100000000000000000000000000000000000000000000000000000000600052603260045260246000fd5b60200260200101511015611a8d576040517f08c379a0000000000000000000000000000000000000000000000000000000008152600401611a8490615901565b60405180910390fd5b7f000000000000000000000000000000000000000000000000000000000000000073ffffffffffffffffffffffffffffffffffffffff1663d0e30db083600081518110611b03577f4e487b7100000000000000000000000000000000000000000000000000000000600052603260045260246000fd5b60200260200101516040518263ffffffff1660e01b81526004016000604051808303818588803b158015611b3657600080fd5b505af1158015611b4a573d6000803e3d6000fd5b50505050507f000000000000000000000000000000000000000000000000000000000000000073ffffffffffffffffffffffffffffffffffffffff1663a9059cbb611c527f00000000000000000000000000000000000000000000000000000000000000008a8a6000818110611be9577f4e487b7100000000000000000000000000000000000000000000000000000000600052603260045260246000fd5b9050602002016020810190611bfe9190614620565b8b8b6001818110611c38577f4e487b7100000000000000000000000000000000000000000000000000000000600052603260045260246000fd5b9050602002016020810190611c4d9190614620565b613051565b84600081518110611c8c577f4e487b7100000000000000000000000000000000000000000000000000000000600052603260045260246000fd5b60200260200101516040518363ffffffff1660e01b8152600401611cb19291906156b6565b602060405180830381600087803b158015611ccb57600080fd5b505af1158015611cdf573d6000803e3d6000fd5b505050506040513d601f19601f82011682018060405250810190611d039190614a53565b611d36577f4e487b7100000000000000000000000000000000000000000000000000000000600052600160045260246000fd5b611d8382888880806020026020016040519081016040528093929190818152602001838360200280828437600081840152601f19601f820116905080830192505050505050508786613d21565b509695505050505050565b7f000000000000000000000000000000000000000000000000000000000000000081565b60608242811015611df8576040517f08c379a0000000000000000000000000000000000000000000000000000000008152600401611def90615841565b60405180910390fd5b7f000000000000000000000000000000000000000000000000000000000000000073ffffffffffffffffffffffffffffffffffffffff1687876000818110611e69577f4e487b7100000000000000000000000000000000000000000000000000000000600052603260045260246000fd5b9050602002016020810190611e7e9190614620565b73ffffffffffffffffffffffffffffffffffffffff1614611ed4576040517f08c379a0000000000000000000000000000000000000000000000000000000008152600401611ecb90615781565b60405180910390fd5b611f407f000000000000000000000000000000000000000000000000000000000000000089898980806020026020016040519081016040528093929190818152602001838360200280828437600081840152601f19601f820116905080830192505050505050506130c7565b91503482600081518110611f7d577f4e487b7100000000000000000000000000000000000000000000000000000000600052603260045260246000fd5b60200260200101511115611fc6576040517f08c379a0000000000000000000000000000000000000000000000000000000008152600401611fbd90615801565b60405180910390fd5b7f000000000000000000000000000000000000000000000000000000000000000073ffffffffffffffffffffffffffffffffffffffff1663d0e30db08360008151811061203c577f4e487b7100000000000000000000000000000000000000000000000000000000600052603260045260246000fd5b60200260200101516040518263ffffffff1660e01b81526004016000604051808303818588803b15801561206f57600080fd5b505af1158015612083573d6000803e3d6000fd5b50505050507f000000000000000000000000000000000000000000000000000000000000000073ffffffffffffffffffffffffffffffffffffffff1663a9059cbb61218b7f00000000000000000000000000000000000000000000000000000000000000008a8a6000818110612122577f4e487b7100000000000000000000000000000000000000000000000000000000600052603260045260246000fd5b90506020020160208101906121379190614620565b8b8b6001818110612171577f4e487b7100000000000000000000000000000000000000000000000000000000600052603260045260246000fd5b90506020020160208101906121869190614620565b613051565b846000815181106121c5577f4e487b7100000000000000000000000000000000000000000000000000000000600052603260045260246000fd5b60200260200101516040518363ffffffff1660e01b81526004016121ea9291906156b6565b602060405180830381600087803b15801561220457600080fd5b505af1158015612218573d6000803e3d6000fd5b505050506040513d601f19601f8201168201806040525081019061223c9190614a53565b61226f577f4e487b7100000000000000000000000000000000000000000000000000000000600052600160045260246000fd5b6122bc82888880806020026020016040519081016040528093929190818152602001838360200280828437600081840152601f19601f820116905080830192505050505050508786613d21565b816000815181106122f6577f4e487b7100000000000000000000000000000000000000000000000000000000600052603260045260246000fd5b602002602001015134111561235c5761235b3383600081518110612343577f4e487b7100000000000000000000000000000000000000000000000000000000600052603260045260246000fd5b6020026020010151346123569190615bf0565b61347c565b5b509695505050505050565b60606123947f00000000000000000000000000000000000000000000000000000000000000008484613ab2565b905092915050565b606082428110156123e2576040517f08c379a00000000000000000000000000000000000000000000000000000000081526004016123d990615841565b60405180910390fd5b61244e7f00000000000000000000000000000000000000000000000000000000000000008a898980806020026020016040519081016040528093929190818152602001838360200280828437600081840152601f19601f82011690508083019250505050505050613ab2565b91508782600184516124609190615bf0565b81518110612497577f4e487b7100000000000000000000000000000000000000000000000000000000600052603260045260246000fd5b602002602001015110156124e0576040517f08c379a00000000000000000000000000000000000000000000000000000000081526004016124d790615901565b60405180910390fd5b6126418787600081811061251d577f4e487b7100000000000000000000000000000000000000000000000000000000600052603260045260246000fd5b90506020020160208101906125329190614620565b336125fa7f00000000000000000000000000000000000000000000000000000000000000008b8b6000818110612591577f4e487b7100000000000000000000000000000000000000000000000000000000600052603260045260246000fd5b90506020020160208101906125a69190614620565b8c8c60018181106125e0577f4e487b7100000000000000000000000000000000000000000000000000000000600052603260045260246000fd5b90506020020160208101906125f59190614620565b613051565b85600081518110612634577f4e487b7100000000000000000000000000000000000000000000000000000000600052603260045260246000fd5b60200260200101516135a2565b50979650505050505050565b7f000000000000000000000000000000000000000000000000000000000000000081565b60008060006126a17f00000000000000000000000000000000000000000000000000000000000000008f8f613051565b905060008c90508173ffffffffffffffffffffffffffffffffffffffff1663d505accf3330848d8d8d8d6040518863ffffffff1660e01b81526004016126ed9796959493929190615647565b600060405180830381600087803b15801561270757600080fd5b505af115801561271b573d6000803e3d6000fd5b5050505061272f8f8f8f8f8f8f8f8c611438565b809450819550505050509b509b9950505050505050505050565b60008060008442811015612792576040517f08c379a000000000000000000000000000000000000000000000000000000000815260040161278990615841565b60405180910390fd5b6127c08b7f00000000000000000000000000000000000000000000000000000000000000008c348d8d6136db565b809450819550505060006128157f00000000000000000000000000000000000000000000000000000000000000008d7f0000000000000000000000000000000000000000000000000000000000000000613051565b90506128238c3383886135a2565b7f000000000000000000000000000000000000000000000000000000000000000073ffffffffffffffffffffffffffffffffffffffff1663d0e30db0856040518263ffffffff1660e01b81526004016000604051808303818588803b15801561288b57600080fd5b505af115801561289f573d6000803e3d6000fd5b50505050507f000000000000000000000000000000000000000000000000000000000000000073ffffffffffffffffffffffffffffffffffffffff1663a9059cbb82866040518363ffffffff1660e01b81526004016128ff9291906156b6565b602060405180830381600087803b15801561291957600080fd5b505af115801561292d573d6000803e3d6000fd5b505050506040513d601f19601f820116820180604052508101906129519190614a53565b612984577f4e487b7100000000000000000000000000000000000000000000000000000000600052600160045260246000fd5b8073ffffffffffffffffffffffffffffffffffffffff166340c10f1989886040518363ffffffff1660e01b81526004016129bf9291906156b6565b602060405180830381600087803b1580156129d957600080fd5b505af11580156129ed573d6000803e3d6000fd5b505050506040513d601f19601f82011682018060405250810190612a119190614acb565b925083341115612a3157612a30338534612a2b9190615bf0565b61347c565b5b50509750975097945050505050565b60608242811015612a86576040517f08c379a0000000000000000000000000000000000000000000000000000000008152600401612a7d90615841565b60405180910390fd5b7f000000000000000000000000000000000000000000000000000000000000000073ffffffffffffffffffffffffffffffffffffffff16878760018a8a9050612acf9190615bf0565b818110612b05577f4e487b7100000000000000000000000000000000000000000000000000000000600052603260045260246000fd5b9050602002016020810190612b1a9190614620565b73ffffffffffffffffffffffffffffffffffffffff1614612b70576040517f08c379a0000000000000000000000000000000000000000000000000000000008152600401612b6790615781565b60405180910390fd5b612bdc7f00000000000000000000000000000000000000000000000000000000000000008a898980806020026020016040519081016040528093929190818152602001838360200280828437600081840152601f19601f820116905080830192505050505050506130c7565b91508782600081518110612c19577f4e487b7100000000000000000000000000000000000000000000000000000000600052603260045260246000fd5b60200260200101511115612c62576040517f08c379a0000000000000000000000000000000000000000000000000000000008152600401612c5990615801565b60405180910390fd5b612dc387876000818110612c9f577f4e487b7100000000000000000000000000000000000000000000000000000000600052603260045260246000fd5b9050602002016020810190612cb49190614620565b33612d7c7f00000000000000000000000000000000000000000000000000000000000000008b8b6000818110612d13577f4e487b7100000000000000000000000000000000000000000000000000000000600052603260045260246000fd5b9050602002016020810190612d289190614620565b8c8c6001818110612d62577f4e487b7100000000000000000000000000000000000000000000000000000000600052603260045260246000fd5b9050602002016020810190612d779190614620565b613051565b85600081518110612db6577f4e487b7100000000000000000000000000000000000000000000000000000000600052603260045260246000fd5b60200260200101516135a2565b612e1082888880806020026020016040519081016040528093929190818152602001838360200280828437600081840152601f19601f820116905080830192505050505050503086613d21565b7f000000000000000000000000000000000000000000000000000000000000000073ffffffffffffffffffffffffffffffffffffffff16632e1a7d4d8360018551612e5b9190615bf0565b81518110612e92577f4e487b7100000000000000000000000000000000000000000000000000000000600052603260045260246000fd5b60200260200101516040518263ffffffff1660e01b8152600401612eb69190615961565b600060405180830381600087803b158015612ed057600080fd5b505af1158015612ee4573d6000803e3d6000fd5b50505050612f3f858360018551612efb9190615bf0565b81518110612f32577f4e487b7100000000000000000000000000000000000000000000000000000000600052603260045260246000fd5b602002602001015161347c565b50979650505050505050565b6000808411612f8f576040517f08c379a0000000000000000000000000000000000000000000000000000000008152600401612f86906158e1565b60405180910390fd5b600083118015612f9f5750600082115b612fde576040517f08c379a0000000000000000000000000000000000000000000000000000000008152600401612fd5906158a1565b60405180910390fd5b6000612ff56103e58661416990919063ffffffff16565b9050600061300c848361416990919063ffffffff16565b90506000613037836130296103e88961416990919063ffffffff16565b6141e490919063ffffffff16565b905080826130459190615b65565b93505050509392505050565b6000806000613060858561403b565b915091506000925085828260405160200161307c929190615547565b604051602081830303815290604052805190602001206040516020016130a392919061558a565b6040516020818303038152906040528051906020012060001c925050509392505050565b606060028251101561310e576040517f08c379a000000000000000000000000000000000000000000000000000000000815260040161310590615821565b60405180910390fd5b815167ffffffffffffffff81111561314f577f4e487b7100000000000000000000000000000000000000000000000000000000600052604160045260246000fd5b60405190808252806020026020018201604052801561317d5781602001602082028036833780820191505090505b5090508281600183516131909190615bf0565b815181106131c7577f4e487b7100000000000000000000000000000000000000000000000000000000600052603260045260246000fd5b6020026020010181815250506000600183516131e39190615bf0565b90505b600081111561333e5760008061328987866001866132049190615bf0565b8151811061323b577f4e487b7100000000000000000000000000000000000000000000000000000000600052603260045260246000fd5b602002602001015187868151811061327c577f4e487b7100000000000000000000000000000000000000000000000000000000600052603260045260246000fd5b6020026020010151614242565b915091506132d88484815181106132c9577f4e487b7100000000000000000000000000000000000000000000000000000000600052603260045260246000fd5b6020026020010151838361399f565b846001856132e69190615bf0565b8151811061331d577f4e487b7100000000000000000000000000000000000000000000000000000000600052603260045260246000fd5b6020026020010181815250505050808061333690615d01565b9150506131e6565b509392505050565b6000808473ffffffffffffffffffffffffffffffffffffffff1663a9059cbb85856040516024016133789291906156b6565b6040516020818303038152906040529060e01b6020820180517bffffffffffffffffffffffffffffffffffffffffffffffffffffffff83818316178352505050506040516133c69190615573565b6000604051808303816000865af19150503d8060008114613403576040519150601f19603f3d011682016040523d82523d6000602084013e613408565b606091505b509150915081801561343657506000815114806134355750808060200190518101906134349190614a53565b5b5b613475576040517f08c379a000000000000000000000000000000000000000000000000000000000815260040161346c90615701565b60405180910390fd5b5050505050565b60008273ffffffffffffffffffffffffffffffffffffffff1682600067ffffffffffffffff8111156134d7577f4e487b7100000000000000000000000000000000000000000000000000000000600052604160045260246000fd5b6040519080825280601f01601f1916602001820160405280156135095781602001600182028036833780820191505090505b506040516135179190615573565b60006040518083038185875af1925050503d8060008114613554576040519150601f19603f3d011682016040523d82523d6000602084013e613559565b606091505b505090508061359d576040517f08c379a000000000000000000000000000000000000000000000000000000000815260040161359490615881565b60405180910390fd5b505050565b6000808573ffffffffffffffffffffffffffffffffffffffff166323b872dd8686866040516024016135d693929190615610565b6040516020818303038152906040529060e01b6020820180517bffffffffffffffffffffffffffffffffffffffffffffffffffffffff83818316178352505050506040516136249190615573565b6000604051808303816000865af19150503d8060008114613661576040519150601f19603f3d011682016040523d82523d6000602084013e613666565b606091505b509150915081801561369457506000815114806136935750808060200190518101906136929190614a53565b5b5b6136d3576040517f08c379a00000000000000000000000000000000000000000000000000000000081526004016136ca90615921565b60405180910390fd5b505050505050565b600080600073ffffffffffffffffffffffffffffffffffffffff167f000000000000000000000000000000000000000000000000000000000000000073ffffffffffffffffffffffffffffffffffffffff1663e6a439058a8a6040518363ffffffff1660e01b81526004016137519291906155e7565b60206040518083038186803b15801561376957600080fd5b505afa15801561377d573d6000803e3d6000fd5b505050506040513d601f19601f820116820180604052508101906137a19190614649565b73ffffffffffffffffffffffffffffffffffffffff16141561386c577f000000000000000000000000000000000000000000000000000000000000000073ffffffffffffffffffffffffffffffffffffffff1663c9c6539689896040518363ffffffff1660e01b81526004016138189291906155e7565b602060405180830381600087803b15801561383257600080fd5b505af1158015613846573d6000803e3d6000fd5b505050506040513d601f19601f8201168201806040525081019061386a9190614649565b505b60008060008214801561387f5750600081145b156138935787878094508195505050613992565b60006138a0898484614354565b90508781116138fb57858110156138ec576040517f08c379a00000000000000000000000000000000000000000000000000000000081526004016138e390615741565b60405180910390fd5b88818095508196505050613990565b6000613908898486614354565b905089811115613941577f4e487b7100000000000000000000000000000000000000000000000000000000600052600160045260246000fd5b87811015613984576040517f08c379a000000000000000000000000000000000000000000000000000000000815260040161397b90615941565b60405180910390fd5b80898096508197505050505b505b5050965096945050505050565b60008084116139e3576040517f08c379a00000000000000000000000000000000000000000000000000000000081526004016139da90615861565b60405180910390fd5b6000831180156139f35750600082115b613a32576040517f08c379a0000000000000000000000000000000000000000000000000000000008152600401613a29906158a1565b60405180910390fd5b6000613a5b6103e8613a4d878761416990919063ffffffff16565b61416990919063ffffffff16565b90506000613a866103e5613a78888761440e90919063ffffffff16565b61416990919063ffffffff16565b9050613aa760018284613a999190615b65565b6141e490919063ffffffff16565b925050509392505050565b6060600282511015613af9576040517f08c379a0000000000000000000000000000000000000000000000000000000008152600401613af090615821565b60405180910390fd5b815167ffffffffffffffff811115613b3a577f4e487b7100000000000000000000000000000000000000000000000000000000600052604160045260246000fd5b604051908082528060200260200182016040528015613b685781602001602082028036833780820191505090505b5090508281600081518110613ba6577f4e487b7100000000000000000000000000000000000000000000000000000000600052603260045260246000fd5b60200260200101818152505060005b60018351613bc39190615bf0565b811015613d1957600080613c6487868581518110613c0a577f4e487b7100000000000000000000000000000000000000000000000000000000600052603260045260246000fd5b602002602001015187600187613c209190615b0f565b81518110613c57577f4e487b7100000000000000000000000000000000000000000000000000000000600052603260045260246000fd5b6020026020010151614242565b91509150613cb3848481518110613ca4577f4e487b7100000000000000000000000000000000000000000000000000000000600052603260045260246000fd5b60200260200101518383612f4b565b84600185613cc19190615b0f565b81518110613cf8577f4e487b7100000000000000000000000000000000000000000000000000000000600052603260045260246000fd5b60200260200101818152505050508080613d1190615d2b565b915050613bb5565b509392505050565b60005b60018451613d329190615bf0565b81101561403457600080858381518110613d75577f4e487b7100000000000000000000000000000000000000000000000000000000600052603260045260246000fd5b602002602001015186600185613d8b9190615b0f565b81518110613dc2577f4e487b7100000000000000000000000000000000000000000000000000000000600052603260045260246000fd5b6020026020010151915091506000613dda838361403b565b509050600088600186613ded9190615b0f565b81518110613e24577f4e487b7100000000000000000000000000000000000000000000000000000000600052603260045260246000fd5b602002602001015190506000808373ffffffffffffffffffffffffffffffffffffffff168673ffffffffffffffffffffffffffffffffffffffff1614613e6c57826000613e70565b6000835b91509150600060028b51613e849190615bf0565b8810613e905789613f08565b613f077f0000000000000000000000000000000000000000000000000000000000000000878d60028c613ec39190615b0f565b81518110613efa577f4e487b7100000000000000000000000000000000000000000000000000000000600052603260045260246000fd5b6020026020010151613051565b5b9050613f357f00000000000000000000000000000000000000000000000000000000000000008888613051565b73ffffffffffffffffffffffffffffffffffffffff166345bb14fe848484600067ffffffffffffffff811115613f94577f4e487b7100000000000000000000000000000000000000000000000000000000600052604160045260246000fd5b6040519080825280601f01601f191660200182016040528015613fc65781602001600182028036833780820191505090505b508e6040518663ffffffff1660e01b8152600401613fe89594939291906159a5565b600060405180830381600087803b15801561400257600080fd5b505af1158015614016573d6000803e3d6000fd5b5050505050505050505050808061402c90615d2b565b915050613d24565b5050505050565b6000808273ffffffffffffffffffffffffffffffffffffffff168473ffffffffffffffffffffffffffffffffffffffff1614156140ad576040517f08c379a00000000000000000000000000000000000000000000000000000000081526004016140a4906157e1565b60405180910390fd5b8273ffffffffffffffffffffffffffffffffffffffff168473ffffffffffffffffffffffffffffffffffffffff16106140e75782846140ea565b83835b8092508193505050600073ffffffffffffffffffffffffffffffffffffffff168273ffffffffffffffffffffffffffffffffffffffff161415614162576040517f08c379a000000000000000000000000000000000000000000000000000000000815260040161415990615761565b60405180910390fd5b9250929050565b60008083141561417c57600090506141de565b6000828461418a9190615b96565b90508284826141999190615b65565b146141d9576040517f08c379a00000000000000000000000000000000000000000000000000000000081526004016141d0906157c1565b60405180910390fd5b809150505b92915050565b60008082846141f39190615b0f565b905083811015614238576040517f08c379a000000000000000000000000000000000000000000000000000000000815260040161422f906158c1565b60405180910390fd5b8091505092915050565b6000806000614251858561403b565b509050600080614262888888613051565b73ffffffffffffffffffffffffffffffffffffffff16630902f1ac6040518163ffffffff1660e01b815260040160606040518083038186803b1580156142a757600080fd5b505afa1580156142bb573d6000803e3d6000fd5b505050506040513d601f19601f820116820180604052508101906142df9190614a7c565b506dffffffffffffffffffffffffffff1691506dffffffffffffffffffffffffffff1691508273ffffffffffffffffffffffffffffffffffffffff168773ffffffffffffffffffffffffffffffffffffffff161461433e578082614341565b81815b8095508196505050505050935093915050565b6000808411614398576040517f08c379a000000000000000000000000000000000000000000000000000000000815260040161438f90615721565b60405180910390fd5b6000831180156143a85750600082115b6143e7576040517f08c379a00000000000000000000000000000000000000000000000000000000081526004016143de906158a1565b60405180910390fd5b826143fb838661416990919063ffffffff16565b6144059190615b65565b90509392505050565b600082821115614453576040517f08c379a000000000000000000000000000000000000000000000000000000000815260040161444a906157a1565b60405180910390fd5b600082846144619190615bf0565b90508091505092915050565b600061448061447b84615a67565b615a36565b9050808382526020820190508285602086028201111561449f57600080fd5b60005b858110156144cf57816144b588826144d9565b8452602084019350602083019250506001810190506144a2565b5050509392505050565b6000813590506144e881615e4d565b6144f181615c24565b905092915050565b60008151905061450881615e4d565b61451181615c24565b905092915050565b60008083601f84011261452b57600080fd5b8235905067ffffffffffffffff81111561454457600080fd5b60208301915083602082028301111561455c57600080fd5b9250929050565b600082601f83011261457457600080fd5b813561458484826020860161446d565b91505092915050565b60008151905061459c81615e64565b92915050565b6000813590506145b181615e7b565b92915050565b6000815190506145c681615e92565b92915050565b6000813590506145db81615ea9565b92915050565b6000815190506145f081615ea9565b92915050565b60008151905061460581615ec0565b92915050565b60008135905061461a81615ed7565b92915050565b60006020828403121561463257600080fd5b6000614640848285016144d9565b91505092915050565b60006020828403121561465b57600080fd5b6000614669848285016144f9565b91505092915050565b600080600080600080600080610100898b03121561468f57600080fd5b600061469d8b828c016144d9565b98505060206146ae8b828c016144d9565b97505060406146bf8b828c016145cc565b96505060606146d08b828c016145cc565b95505060806146e18b828c016145cc565b94505060a06146f28b828c016144d9565b93505060c06147038b828c016145cc565b92505060e06147148b828c016145cc565b9150509295985092959890939650565b60008060008060008060008060008060006101608c8e03121561474657600080fd5b60006147548e828f016144d9565b9b505060206147658e828f016144d9565b9a505060406147768e828f016145cc565b99505060606147878e828f016145cc565b98505060806147988e828f016145cc565b97505060a06147a98e828f016144d9565b96505060c06147ba8e828f016145cc565b95505060e06147cb8e828f0161460b565b9450506101006147dd8e828f016145a2565b9350506101206147ef8e828f016145a2565b9250506101406148018e828f016145cc565b9150509295989b509295989b9093969950565b60008060008060008060008060006101208a8c03121561483357600080fd5b60006148418c828d016144d9565b99505060206148528c828d016144d9565b98505060406148638c828d016145cc565b97505060606148748c828d016145cc565b96505060806148858c828d016145cc565b95505060a06148968c828d016145cc565b94505060c06148a78c828d016144d9565b93505060e06148b88c828d016145cc565b9250506101006148ca8c828d016145cc565b9150509295985092959850929598565b600080600080600080600060e0888a0312156148f557600080fd5b60006149038a828b016144d9565b97505060206149148a828b016145cc565b96505060406149258a828b016145cc565b95505060606149368a828b016145cc565b94505060806149478a828b016144d9565b93505060a06149588a828b016145cc565b92505060c06149698a828b016145cc565b91505092959891949750929550565b6000806000806000806000806000806101408b8d03121561499857600080fd5b60006149a68d828e016144d9565b9a505060206149b78d828e016145cc565b99505060406149c88d828e016145cc565b98505060606149d98d828e016145cc565b97505060806149ea8d828e016144d9565b96505060a06149fb8d828e016145cc565b95505060c0614a0c8d828e0161460b565b94505060e0614a1d8d828e016145a2565b935050610100614a2f8d828e016145a2565b925050610120614a418d828e016145cc565b9150509295989b9194979a5092959850565b600060208284031215614a6557600080fd5b6000614a738482850161458d565b91505092915050565b600080600060608486031215614a9157600080fd5b6000614a9f868287016145b7565b9350506020614ab0868287016145b7565b9250506040614ac1868287016145f6565b9150509250925092565b600060208284031215614add57600080fd5b6000614aeb848285016145e1565b91505092915050565b60008060008060008060a08789031215614b0d57600080fd5b6000614b1b89828a016145cc565b965050602087013567ffffffffffffffff811115614b3857600080fd5b614b4489828a01614519565b95509550506040614b5789828a016144d9565b9350506060614b6889828a016145cc565b9250506080614b7989828a016145cc565b9150509295509295509295565b60008060408385031215614b9957600080fd5b6000614ba7858286016145cc565b925050602083013567ffffffffffffffff811115614bc457600080fd5b614bd085828601614563565b9150509250929050565b60008060408385031215614bed57600080fd5b6000614bfb858286016145e1565b9250506020614c0c858286016145e1565b9150509250929050565b600080600080600080600060c0888a031215614c3157600080fd5b6000614c3f8a828b016145cc565b9750506020614c508a828b016145cc565b965050604088013567ffffffffffffffff811115614c6d57600080fd5b614c798a828b01614519565b95509550506060614c8c8a828b016144d9565b9350506080614c9d8a828b016145cc565b92505060a0614cae8a828b016145cc565b91505092959891949750929550565b600080600060608486031215614cd257600080fd5b6000614ce0868287016145cc565b9350506020614cf1868287016145cc565b9250506040614d02868287016145cc565b9150509250925092565b6000614d18838361551a565b60208301905092915050565b614d2d81615c24565b82525050565b614d44614d3f82615c24565b615d74565b82525050565b6000614d5582615aa3565b614d5f8185615ac6565b9350614d6a83615a93565b8060005b83811015614d9b578151614d828882614d0c565b9750614d8d83615ab9565b925050600181019050614d6e565b5085935050505092915050565b614db181615c42565b82525050565b614dc8614dc382615c42565b615d86565b82525050565b6000614dd982615aae565b614de38185615ad7565b9350614df3818560208601615cce565b614dfc81615e2f565b840191505092915050565b6000614e1282615aae565b614e1c8185615ae8565b9350614e2c818560208601615cce565b80840191505092915050565b6000614e45600183615b04565b91507f41000000000000000000000000000000000000000000000000000000000000006000830152600182019050919050565b6000614e85601f83615af3565b91507f5472616e7366657248656c7065723a205452414e534645525f4641494c4544006000830152602082019050919050565b6000614ec5602683615af3565b91507f45786f6e7377617056324c6962726172793a20494e53554646494349454e545f60008301527f414d4f554e5400000000000000000000000000000000000000000000000000006020830152604082019050919050565b6000614f2b602783615af3565b91507f45786f6e737761705632526f757465723a20494e53554646494349454e545f4260008301527f5f414d4f554e54000000000000000000000000000000000000000000000000006020830152604082019050919050565b6000614f91601f83615af3565b91507f45786f6e7377617056324c6962726172793a205a45524f5f41444452455353006000830152602082019050919050565b6000614fd1601e83615af3565b91507f45786f6e737761705632526f757465723a20494e56414c49445f5041544800006000830152602082019050919050565b6000615011601783615af3565b91507f536166654d617468237375623a20554e444552464c4f570000000000000000006000830152602082019050919050565b6000615051601683615af3565b91507f536166654d617468236d756c3a204f564552464c4f57000000000000000000006000830152602082019050919050565b6000615091602683615af3565b91507f45786f6e7377617056324c6962726172793a204944454e544943414c5f41444460008301527f52455353455300000000000000000000000000000000000000000000000000006020830152604082019050919050565b60006150f7602883615af3565b91507f45786f6e737761705632526f757465723a204558434553534956455f494e505560008301527f545f414d4f554e540000000000000000000000000000000000000000000000006020830152604082019050919050565b600061515d601f83615af3565b91507f45786f6e7377617056324c6962726172793a20494e56414c49445f50415448006000830152602082019050919050565b600061519d601983615af3565b91507f45786f6e737761705632526f757465723a2045585049524544000000000000006000830152602082019050919050565b60006151dd602083615b04565b91507fcf25def71000228759b2349b07b14fb49ae4a8eb160b10c360bb667a5df7f2666000830152602082019050919050565b600061521d602d83615af3565b91507f45786f6e7377617056324c6962726172793a20494e53554646494349454e545f60008301527f4f55545055545f414d4f554e54000000000000000000000000000000000000006020830152604082019050919050565b6000615283602383615af3565b91507f5472616e7366657248656c7065723a205452585f5452414e534645525f46414960008301527f4c454400000000000000000000000000000000000000000000000000000000006020830152604082019050919050565b60006152e9602983615af3565b91507f45786f6e7377617056324c6962726172793a20494e53554646494349454e545f60008301527f4c495155494449545900000000000000000000000000000000000000000000006020830152604082019050919050565b600061534f601683615af3565b91507f536166654d617468236164643a204f564552464c4f57000000000000000000006000830152602082019050919050565b600061538f602c83615af3565b91507f45786f6e7377617056324c6962726172793a20494e53554646494349454e545f60008301527f494e5055545f414d4f554e5400000000000000000000000000000000000000006020830152604082019050919050565b60006153f5602c83615af3565b91507f45786f6e737761705632526f757465723a20494e53554646494349454e545f4f60008301527f55545055545f414d4f554e5400000000000000000000000000000000000000006020830152604082019050919050565b600061545b602483615af3565b91507f5472616e7366657248656c7065723a205452414e534645525f46524f4d5f464160008301527f494c4544000000000000000000000000000000000000000000000000000000006020830152604082019050919050565b60006154c1602783615af3565b91507f45786f6e737761705632526f757465723a20494e53554646494349454e545f4160008301527f5f414d4f554e54000000000000000000000000000000000000000000000000006020830152604082019050919050565b61552381615ca7565b82525050565b61553281615ca7565b82525050565b61554181615cc1565b82525050565b60006155538285614d33565b6014820191506155638284614d33565b6014820191508190509392505050565b600061557f8284614e07565b915081905092915050565b600061559582614e38565b91506155a18285614d33565b6014820191506155b18284614db7565b6020820191506155c0826151d0565b91508190509392505050565b60006020820190506155e16000830184614d24565b92915050565b60006040820190506155fc6000830185614d24565b6156096020830184614d24565b9392505050565b60006060820190506156256000830186614d24565b6156326020830185614d24565b61563f6040830184615529565b949350505050565b600060e08201905061565c600083018a614d24565b6156696020830189614d24565b6156766040830188615529565b6156836060830187615529565b6156906080830186615538565b61569d60a0830185614da8565b6156aa60c0830184614da8565b98975050505050505050565b60006040820190506156cb6000830185614d24565b6156d86020830184615529565b9392505050565b600060208201905081810360008301526156f98184614d4a565b905092915050565b6000602082019050818103600083015261571a81614e78565b9050919050565b6000602082019050818103600083015261573a81614eb8565b9050919050565b6000602082019050818103600083015261575a81614f1e565b9050919050565b6000602082019050818103600083015261577a81614f84565b9050919050565b6000602082019050818103600083015261579a81614fc4565b9050919050565b600060208201905081810360008301526157ba81615004565b9050919050565b600060208201905081810360008301526157da81615044565b9050919050565b600060208201905081810360008301526157fa81615084565b9050919050565b6000602082019050818103600083015261581a816150ea565b9050919050565b6000602082019050818103600083015261583a81615150565b9050919050565b6000602082019050818103600083015261585a81615190565b9050919050565b6000602082019050818103600083015261587a81615210565b9050919050565b6000602082019050818103600083015261589a81615276565b9050919050565b600060208201905081810360008301526158ba816152dc565b9050919050565b600060208201905081810360008301526158da81615342565b9050919050565b600060208201905081810360008301526158fa81615382565b9050919050565b6000602082019050818103600083015261591a816153e8565b9050919050565b6000602082019050818103600083015261593a8161544e565b9050919050565b6000602082019050818103600083015261595a816154b4565b9050919050565b60006020820190506159766000830184615529565b92915050565b60006040820190506159916000830185615529565b61599e6020830184615529565b9392505050565b600060a0820190506159ba6000830188615529565b6159c76020830187615529565b6159d46040830186614d24565b81810360608301526159e68185614dce565b90506159f56080830184615529565b9695505050505050565b6000606082019050615a146000830186615529565b615a216020830185615529565b615a2e6040830184615529565b949350505050565b6000604051905081810181811067ffffffffffffffff82111715615a5d57615a5c615e00565b5b8060405250919050565b600067ffffffffffffffff821115615a8257615a81615e00565b5b602082029050602081019050919050565b6000819050602082019050919050565b600081519050919050565b600081519050919050565b6000602082019050919050565b600082825260208201905092915050565b600082825260208201905092915050565b600081905092915050565b600082825260208201905092915050565b600081905092915050565b6000615b1a82615ca7565b9150615b2583615ca7565b9250827fffffffffffffffffffffffffffffffffffffffffffffffffffffffffffffffff03821115615b5a57615b59615da2565b5b828201905092915050565b6000615b7082615ca7565b9150615b7b83615ca7565b925082615b8b57615b8a615dd1565b5b828204905092915050565b6000615ba182615ca7565b9150615bac83615ca7565b9250817fffffffffffffffffffffffffffffffffffffffffffffffffffffffffffffffff0483118215151615615be557615be4615da2565b5b828202905092915050565b6000615bfb82615ca7565b9150615c0683615ca7565b925082821015615c1957615c18615da2565b5b828203905092915050565b6000615c2f82615c66565b9050919050565b60008115159050919050565b6000819050919050565b60006dffffffffffffffffffffffffffff82169050919050565b600073ffffffffffffffffffffffffffffffffffffffff82169050919050565b600074ffffffffffffffffffffffffffffffffffffffffff82169050919050565b6000819050919050565b600063ffffffff82169050919050565b600060ff82169050919050565b60005b83811015615cec578082015181840152602081019050615cd1565b83811115615cfb576000848401525b50505050565b6000615d0c82615ca7565b91506000821415615d2057615d1f615da2565b5b600182039050919050565b6000615d3682615ca7565b91507fffffffffffffffffffffffffffffffffffffffffffffffffffffffffffffffff821415615d6957615d68615da2565b5b600182019050919050565b6000615d7f82615d90565b9050919050565b6000819050919050565b6000615d9b82615e40565b9050919050565b7f4e487b7100000000000000000000000000000000000000000000000000000000600052601160045260246000fd5b7f4e487b7100000000000000000000000000000000000000000000000000000000600052601260045260246000fd5b7f4e487b7100000000000000000000000000000000000000000000000000000000600052604160045260246000fd5b6000601f19601f8301169050919050565b60008160601b9050919050565b615e5681615c86565b8114615e6157600080fd5b50565b615e6d81615c36565b8114615e7857600080fd5b50565b615e8481615c42565b8114615e8f57600080fd5b50565b615e9b81615c4c565b8114615ea657600080fd5b50565b615eb281615ca7565b8114615ebd57600080fd5b50565b615ec981615cb1565b8114615ed457600080fd5b50565b615ee081615cc1565b8114615eeb57600080fd5b5056fea26469706673582212202cac1122524aac5058c666d34cecb79ed7475117a8e716b9f4b7b1634a91e2cc64736f6c63430008000033",
  "source": "// SPDX-License-Identifier: MIT\npragma solidity ^0.8.0;\n\n\nimport './libraries/ExonswapV2Library.sol';\nimport './libraries/SafeMath.sol';\nimport './libraries/TransferHelper.sol';\nimport './interfaces/IExonswapV2Factory.sol';\nimport './interfaces/IExonswapV2Pair.sol';\nimport './interfaces/ITRC20.sol';\nimport './interfaces/IWTRX.sol';\n\ncontract ExonswapV2Router   {\n    using SafeMath for uint;\n\n    address public immutable  factory;\n    address public immutable  WTRX;\n    address public owner;\n\n    modifier ensure(uint deadline) {\n        require(deadline >= block.timestamp, 'ExonswapV2Router: EXPIRED');\n        _;\n    }\n\n    modifier onlyOwner() {\n        require(msg.sender == owner, \"Only owner\");\n        _;\n    }\n\n    constructor(address _factory, address _WTRX)  {\n        factory = _factory;\n        WTRX = _WTRX;\n        owner = msg.sender;\n    }\n\n\n\n    fallback() external payable {\n        require(msg.sender == WTRX); // only accept TRX via fallback from the WTRX contract\n    }\n\n    receive() external payable {\n        require(msg.sender == WTRX);\n    }\n\n    // **** ADD LIQUIDITY ****\n    function _addLiquidity(\n        address tokenA,\n        address tokenB,\n        uint amountADesired,\n        uint amountBDesired,\n        uint amountAMin,\n        uint amountBMin\n    ) internal virtual returns (uint amountA, uint amountB) {\n        // create the pair if it doesn't exist yet\n        if (IExonswapV2Factory(factory).getPair(tokenA, tokenB) == address(0)) {\n            IExonswapV2Factory(factory).createPair(tokenA, tokenB);\n        }\n        //(uint reserveA, uint reserveB) = ExonswapV2Library.getReserves(factory, tokenA, tokenB);\n        uint reserveA;\n        uint reserveB;\n        if (reserveA == 0 && reserveB == 0) {\n            (amountA, amountB) = (amountADesired, amountBDesired);\n        } else {\n            uint amountBOptimal = ExonswapV2Library.quote(amountADesired, reserveA, reserveB);\n            if (amountBOptimal <= amountBDesired) {\n                require(amountBOptimal >= amountBMin, 'ExonswapV2Router: INSUFFICIENT_B_AMOUNT');\n                (amountA, amountB) = (amountADesired, amountBOptimal);\n            } else {\n                uint amountAOptimal = ExonswapV2Library.quote(amountBDesired, reserveB, reserveA);\n                assert(amountAOptimal <= amountADesired);\n                require(amountAOptimal >= amountAMin, 'ExonswapV2Router: INSUFFICIENT_A_AMOUNT');\n                (amountA, amountB) = (amountAOptimal, amountBDesired);\n            }\n        }\n    }\n\n\n     // ensure(deadline)\n\n    function addLiquidity(\n        address tokenA,\n        address tokenB,\n        uint amountADesired,\n        uint amountBDesired,\n        uint amountAMin,\n        uint amountBMin,\n        address to,\n        uint deadline,\n        uint _tokenId\n    ) external virtual ensure(deadline) returns (uint amountA, uint amountB, uint liquidity) {\n        // check nft owner --------------------------------------------------------------------------\n       // require(IExonswapV2Factory(factory).getNFTAddress(_tokenId) == msg.sender, \"Not your token\");\n        (amountA, amountB) = _addLiquidity(tokenA, tokenB, amountADesired, \n                                               amountBDesired, amountAMin, amountBMin);\n        address pair = ExonswapV2Library.pairFor(factory, tokenA, tokenB);\n        TransferHelper.safeTransferFrom(tokenA, msg.sender, pair, amountA);\n        TransferHelper.safeTransferFrom(tokenB, msg.sender, pair, amountB);\n        liquidity = IExonswapV2Pair(pair).mint(to, _tokenId);\n        liquidity = 0;\n        return (amountA, amountB, liquidity);\n    }\n    function addLiquidityTRX(\n        address token,\n        uint amountTokenDesired,\n        uint amountTokenMin,\n        uint amountTRXMin,\n        address to,\n        uint deadline,\n        uint _tokenId\n    ) external virtual  payable ensure(deadline) returns (uint amountToken, uint amountTRX, uint liquidity) {\n        // check nft owner --------------------------------------------------------------------------\n        // require(IExonswapV2Factory(factory).getNFTAddress(_tokenId) == msg.sender, \"Not your token\");\n        (amountToken, amountTRX) = _addLiquidity(\n            token,\n            WTRX,\n            amountTokenDesired,\n            msg.value,\n            amountTokenMin,\n            amountTRXMin\n        );\n        address pair = ExonswapV2Library.pairFor(factory, token, WTRX);\n        TransferHelper.safeTransferFrom(token, msg.sender, pair, amountToken);\n        IWTRX(WTRX).deposit{value: amountTRX}();\n        assert(IWTRX(WTRX).transfer(pair, amountTRX));\n        liquidity = IExonswapV2Pair(pair).mint(to, _tokenId);\n        if (msg.value > amountTRX) TransferHelper.safeTransferTRX(msg.sender, msg.value - amountTRX);\n        \n    }\n\n    // **** REMOVE LIQUIDITY ****\n    function removeLiquidity(\n        address tokenA,\n        address tokenB,\n        uint liquidity,\n        uint amountAMin,\n        uint amountBMin,\n        address to,\n        uint deadline,\n        uint _tokenId\n    ) public virtual  ensure(deadline) returns (uint amountA, uint amountB) {\n        // check nft owner --------------------------------------------------------------------------\n        //require(IExonswapV2Factory(factory).getNFTAddress(_tokenId) == msg.sender, \"Not your token\");\n        \n        address pair = ExonswapV2Library.pairFor(factory, tokenA, tokenB);\n        IExonswapV2Pair(pair).transferFrom(msg.sender, pair, liquidity); // send liquidity to pair\n        (uint amount0, uint amount1) = IExonswapV2Pair(pair).burn(to, _tokenId);\n        (address token0,) = ExonswapV2Library.sortTokens(tokenA, tokenB);\n        (amountA, amountB) = tokenA == token0 ? (amount0, amount1) : (amount1, amount0);\n        require(amountA >= amountAMin, 'ExonswapV2Router: INSUFFICIENT_A_AMOUNT');\n        require(amountB >= amountBMin, 'ExonswapV2Router: INSUFFICIENT_B_AMOUNT');\n    }\n    function removeLiquidityTRX(\n        address token,\n        uint liquidity,\n        uint amountTokenMin,\n        uint amountTRXMin,\n        address to,\n        uint deadline,\n        uint _tokenId\n    ) public virtual ensure(deadline) returns (uint amountToken, uint amountTRX) {\n        // check nft owner --------------------------------------------------------------------------\n        //require(IExonswapV2Factory(factory).getNFTAddress(_tokenId) == msg.sender, \"Not your token\");\n        \n        (amountToken, amountTRX) = removeLiquidity(\n            token,\n            WTRX,\n            liquidity,\n            amountTokenMin,\n            amountTRXMin,\n            address(this),\n            deadline,\n            _tokenId\n        );\n        TransferHelper.safeTransfer(token, to, amountToken);\n        IWTRX(WTRX).withdraw(amountTRX);\n        TransferHelper.safeTransferTRX(to, amountTRX);\n    }\n    function removeLiquidityWithPermit(\n        address tokenA,\n        address tokenB,\n        uint liquidity,\n        uint amountAMin,\n        uint amountBMin,\n        address to,\n        uint deadline,\n        uint8 v, bytes32 r, bytes32 s, uint _tokenId\n    ) external virtual returns (uint amountA, uint amountB) {\n        address pair = ExonswapV2Library.pairFor(factory, tokenA, tokenB);\n        uint value = liquidity;\n        IExonswapV2Pair(pair).permit(msg.sender, address(this), value, deadline, v, r, s);\n        (amountA, amountB) = removeLiquidity(tokenA, tokenB, liquidity, amountAMin, amountBMin, to, deadline, _tokenId);\n    }\n    function removeLiquidityTRXWithPermit(\n        address token,\n        uint liquidity,\n        uint amountTokenMin,\n        uint amountTRXMin,\n        address to,\n        uint deadline,\n        uint8 v, bytes32 r, bytes32 s, uint _tokenId\n    ) external virtual  returns (uint amountToken, uint amountTRX) {\n        address pair = ExonswapV2Library.pairFor(factory, token, WTRX);\n        uint value = liquidity;\n        IExonswapV2Pair(pair).permit(msg.sender, address(this), value, deadline, v, r, s);\n        (amountToken, amountTRX) = removeLiquidityTRX(token, liquidity, amountTokenMin, amountTRXMin, to, deadline, _tokenId);\n    }\n\n//     // **** REMOVE LIQUIDITY (supporting fee-on-transfer tokens) ****\n    function removeLiquidityTRXSupportingFeeOnTransferTokens(\n        address token,\n        uint liquidity,\n        uint amountTokenMin,\n        uint amountTRXMin,\n        address to,\n        uint deadline,\n        uint _token_id\n    ) public virtual  ensure(deadline) returns (uint amountTRX) {\n        (, amountTRX) = removeLiquidity(\n            token,\n            WTRX,\n            liquidity,\n            amountTokenMin,\n            amountTRXMin,\n            address(this),\n            deadline,\n            _token_id\n        );\n        TransferHelper.safeTransfer(token, to, ITRC20(token).balanceOf(address(this)));\n        IWTRX(WTRX).withdraw(amountTRX);\n        TransferHelper.safeTransferTRX(to, amountTRX);\n    }\n    function removeLiquidityTRXWithPermitSupportingFeeOnTransferTokens(\n        address token,\n        uint liquidity,\n        uint amountTokenMin,\n        uint amountTRXMin,\n        address to,\n        uint deadline,\n        uint8 v, bytes32 r, bytes32 s,\n        uint _token_id\n    ) external virtual  returns (uint amountTRX) {\n        address pair = ExonswapV2Library.pairFor(factory, token, WTRX);\n        uint value =  liquidity;\n        IExonswapV2Pair(pair).permit(msg.sender, address(this), value, deadline, v, r, s);\n        amountTRX = removeLiquidityTRXSupportingFeeOnTransferTokens(\n            token, liquidity, amountTokenMin, amountTRXMin, to, deadline, _token_id\n        );\n    }\n\n    // **** SWAP ****\n    // requires the initial amount to have already been sent to the first pair\n    function _swap(uint[] memory amounts, \n                   address[] memory path, \n                   address _to, \n                   uint _tokenId) internal virtual {\n        for (uint i; i < path.length - 1; i++) {\n            (address input, address output) = (path[i], path[i + 1]);\n            (address token0,) = ExonswapV2Library.sortTokens(input, output);\n            uint amountOut = amounts[i + 1];\n            (uint amount0Out, uint amount1Out) = input == token0 ? (uint(0), amountOut) : (amountOut, uint(0));\n            address to = i < path.length - 2 ? ExonswapV2Library.pairFor(factory, output, path[i + 2]) : _to;\n            IExonswapV2Pair(ExonswapV2Library.pairFor(factory, input, output)).swap(amount0Out, amount1Out, to, new bytes(0), _tokenId);\n            \n        }\n    }\n    function swapExactTokensForTokens(\n        uint amountIn,\n        uint amountOutMin,\n        address[] calldata path,\n        address to,\n        uint deadline,\n        uint _tokenId\n    ) external virtual ensure(deadline) returns (uint[] memory amounts) {\n        amounts = ExonswapV2Library.getAmountsOut(factory, amountIn, path);\n        require(amounts[amounts.length - 1] >= amountOutMin, 'ExonswapV2Router: INSUFFICIENT_OUTPUT_AMOUNT');\n        TransferHelper.safeTransferFrom(\n            path[0], msg.sender, ExonswapV2Library.pairFor(factory, path[0], path[1]), amounts[0]\n        );\n       // _swap(amounts, path, to, _tokenId);\n    }\n    //ensure(deadline)\n    function swapTokensForExactTokens(\n        uint amountOut,\n        uint amountInMax,\n        address[] calldata path,\n        address to,\n        uint deadline,\n        uint _tokenId\n    ) external virtual  returns (uint[] memory amounts) {\n        amounts = ExonswapV2Library.getAmountsIn(factory, amountOut, path);\n        // require(amounts[0] <= amountInMax, 'ExonswapV2Router: EXCESSIVE_INPUT_AMOUNT');\n        TransferHelper.safeTransferFrom(\n            path[0], msg.sender, ExonswapV2Library.pairFor(factory, path[0], path[1]), amounts[0]\n        );\n        // _swap(amounts, path, to, _tokenId);\n    }\n    function swapExactTRXForTokens(uint amountOutMin, \n                                   address[] calldata path, \n                                   address to, \n                                   uint deadline,\n                                   uint _tokenId)\n        external\n        virtual\n        payable\n        ensure(deadline)\n        returns (uint[] memory amounts)\n    {\n        require(path[0] == WTRX, 'ExonswapV2Router: INVALID_PATH');\n        amounts = ExonswapV2Library.getAmountsOut(factory, msg.value, path);\n        require(amounts[amounts.length - 1] >= amountOutMin, 'ExonswapV2Router: INSUFFICIENT_OUTPUT_AMOUNT');\n        IWTRX(WTRX).deposit{value: amounts[0]}();\n        assert(IWTRX(WTRX).transfer(ExonswapV2Library.pairFor(factory, path[0], path[1]), amounts[0]));\n        _swap(amounts, path, to, _tokenId);\n    }\n\n    function swapTokensForExactTRX(uint amountOut, \n                                   uint amountInMax, \n                                   address[] calldata path, \n                                   address to, \n                                   uint deadline,\n                                   uint _tokenId)\n        external\n        virtual\n                ensure(deadline)\n        returns (uint[] memory amounts)\n    {\n        require(path[path.length - 1] == WTRX, 'ExonswapV2Router: INVALID_PATH');\n        amounts = ExonswapV2Library.getAmountsIn(factory, amountOut, path);\n        require(amounts[0] <= amountInMax, 'ExonswapV2Router: EXCESSIVE_INPUT_AMOUNT');\n        TransferHelper.safeTransferFrom(\n            path[0], msg.sender, ExonswapV2Library.pairFor(factory, path[0], path[1]), amounts[0]\n        );\n        _swap(amounts, path, address(this), _tokenId);\n        IWTRX(WTRX).withdraw(amounts[amounts.length - 1]);\n        TransferHelper.safeTransferTRX(to, amounts[amounts.length - 1]);\n    }\n\n    function swapExactTokensForTRX(uint amountIn, \n                                   uint amountOutMin, \n                                   address[] calldata path, \n                                   address to, \n                                   uint deadline,\n                                   uint _tokenId)\n        external\n        virtual\n                ensure(deadline)\n        returns (uint[] memory amounts)\n    {\n        require(path[path.length - 1] == WTRX, 'ExonswapV2Router: INVALID_PATH');\n        amounts = ExonswapV2Library.getAmountsOut(factory, amountIn, path);\n        require(amounts[amounts.length - 1] >= amountOutMin, 'ExonswapV2Router: INSUFFICIENT_OUTPUT_AMOUNT');\n        TransferHelper.safeTransferFrom(\n            path[0], msg.sender, ExonswapV2Library.pairFor(factory, path[0], path[1]), amounts[0]\n        );\n        _swap(amounts, path, address(this), _tokenId);\n        IWTRX(WTRX).withdraw(amounts[amounts.length - 1]);\n        TransferHelper.safeTransferTRX(to, amounts[amounts.length - 1]);\n    }\n\n    function swapTRXForExactTokens(uint amountOut, \n                                   address[] calldata path, \n                                   address to, \n                                   uint deadline,\n                                   uint _tokenId)\n        external\n        virtual\n                payable\n        ensure(deadline)\n        returns (uint[] memory amounts)\n    {\n        require(path[0] == WTRX, 'ExonswapV2Router: INVALID_PATH');\n        amounts = ExonswapV2Library.getAmountsIn(factory, amountOut, path);\n        require(amounts[0] <= msg.value, 'ExonswapV2Router: EXCESSIVE_INPUT_AMOUNT');\n        IWTRX(WTRX).deposit{value: amounts[0]}();\n        assert(IWTRX(WTRX).transfer(ExonswapV2Library.pairFor(factory, path[0], path[1]), amounts[0]));\n        _swap(amounts, path, to, _tokenId);\n        // refund dust TRX, if any\n        if (msg.value > amounts[0]) TransferHelper.safeTransferTRX(msg.sender, msg.value - amounts[0]);\n    }\n    \n        function getAmountOut(uint amountIn, uint reserveIn, uint reserveOut)\n        public\n        pure\n        virtual\n        returns (uint amountOut)\n    {\n        return ExonswapV2Library.getAmountOut(amountIn, reserveIn, reserveOut);\n    }\n\n    function getAmountIn(uint amountOut, uint reserveIn, uint reserveOut)\n        public\n        pure\n        virtual\n        returns (uint amountIn)\n    {\n        return ExonswapV2Library.getAmountIn(amountOut, reserveIn, reserveOut);\n    }\n\n    function getAmountsOut(uint amountIn, address[] memory path)\n        public\n        view\n        virtual\n        returns (uint[] memory amounts)\n    {\n        return ExonswapV2Library.getAmountsOut(factory, amountIn, path);\n    }\n\n    function getAmountsIn(uint amountOut, address[] memory path)\n        public\n        view\n        virtual\n        returns (uint[] memory amounts)\n    {\n        return ExonswapV2Library.getAmountsIn(factory, amountOut, path);\n    }\n\n\n}\n",
  "sourcePath": "/Users/pro/Development/blockchain/tron/exson/smart-contract-from-scratch/contracts/ExonswapV2Router.sol",
  "compiler": {
    "name": "solc",
    "version": "0.8.0+commit.7c2e6412.Emscripten.clang"
  },
  "schemaVersion": "2.0.1",
  "updatedAt": "2021-11-07T18:21:23.736Z"
}